:020000040800F2
:1000000000800120792500085D2200085F22000899
:100010006122000863220008652200080000000039
:10002000000000000000000000000000672200083F
:1000300069220008000000006B2200086D22000801
:10004000C9250008C9250008C9250008C9250008D8
:10005000C9250008C92500087D22000801230008E1
:100060008123000899230008C9230008C925000836
:10007000C9250008C9250008C9250008C9250008A8
:10008000C9250008C9250008C9250008000000008E
:100090000000000000000000000000004D240008E7
:1000A000C9250008AD240008C9250008C925000895
:1000B000C9250008C9250008C9250008C925000868
:1000C000C9250008C9250008C9250008C925000858
:1000D000C9250008C9250008C9250008000000003E
:1000E000D1240008C9250008C92500080000000027
:1000F000000000000000000000000000C92500080A
:1001000000000000C9250008C9250008C92500080D
:1001100000000000000000000000000000000000DF
:10012000C9250008C9250008C9250008C9250008F7
:10013000C9250008000000000000000000000000C9
:10014000000000000000000000000000C9250008B9
:10015000C9250008C9250008C9250008C9250008C7
:10016000C9250008C92500080000000000000000A3
:10017000000000000000000000000000000000007F
:1001800000000000C9250008000000000000000079
:04019000C925000875
:1001940010B5054C237833B9044B13B10448AFF3BD
:1001A40000800123237010BD100000200000000017
:1001B4001426000808B5034B1BB103490348AFF3E9
:1001C400008008BD00000000140000201426000870
:1001D40053B94AB9002908BF00281CBF4FF0FF31AA
:1001E4004FF0FF3000F07AB9ADF1080C6DE904CEA0
:1001F40000F006F8DDF804E0DDE9022304B07047FE
:100204002DE9F0478C460D460446089E002B51D13B
:100214008A4217466DD9B2FA82FEBEF1000F0BD0A6
:10022400CEF1200C01FA0EF520FA0CFC02FA0EF7BE
:100234004CEA050C00FA0EF44FEA174A250CBCFBF5
:10024400FAF81FFA87F90AFB18CC45EA0C4508FBB3
:1002540009F3AB420AD9ED1908F1FF3280F023818A
:10026400AB4240F22081A8F102083D44ED1AA4B249
:10027400B5FBFAF00AFB105544EA054400FB09F902
:10028400A14509D9E41900F1FF3380F00A81A145A1
:1002940040F2078102383C44A4EB090440EA0840D8
:1002A4000021002E61D024FA0EF400233460736020
:1002B400BDE8F0878B4207D9002E54D0002186E890
:1002C40021000846BDE8F087B3FA83F1002940F025
:1002D4008E80AB4202D3824200F2FA80841A65EB2C
:1002E40003050120AC46002E3FD086E81010BDE87F
:1002F400F08712B90127B7FBF2F7B7FA87FEBEF110
:10030400000F34D1EB1B3A0C1FFA87FC0121B3FB1D
:10031400F2F8250C02FB183345EA03450CFB08F3FD
:10032400AB4207D9ED1908F1FF3002D2AB4200F21B
:10033400D1808046ED1AA3B2B5FBF2F002FB105552
:1003440043EA05440CFB00FCA44507D9E41900F179
:10035400FF3302D2A44500F2B8801846A4EB0C0483
:1003640040EA08409DE731463046BDE8F087CEF1CB
:10037400200405FA0EF307FA0EF720FA04F83A0CF3
:1003840025FA04F448EA0308B4FBF2F14FEA1845ED
:1003940002FB11441FFA87FC45EA044501FB0CF3F8
:1003A400AB4200FA0EF409D9ED1901F1FF3080F0E7
:1003B4008A80AB4240F2878002393D44EB1A1FFA2F
:1003C40088F5B3FBF2F002FB103345EA034500FB6A
:1003D4000CF3AB4207D9ED1900F1FF386FD2AB42F1
:1003E4006DD902383D44EB1A40EA01418FE7C1F16F
:1003F400200722FA07F88B4005FA01F448EA0303C0
:1004040020FA07FE4FEA134CFD404EEA040EB5FBFA
:10041400FCF94FEA1E440CFB19551FFA83F844EA11
:10042400054509FB08F4AC4202FA01F200FA01FAAC
:1004340008D9ED1809F1FF3043D2AC4241D9A9F1F2
:1004440002091D442D1B1FFA8EFEB5FBFCF00CFBAC
:1004540010554EEA054400FB08F8A04507D9E418F6
:1004640000F1FF3529D2A04527D902381C4440EABF
:100474000940A4EB0804A0FB02894C45C6464D463E
:1004840015D312D056B1BAEB0E0364EB050404FA8B
:1004940007F7CB401F43CC40376074600021BDE8B0
:1004A400F0871846F8E69046E0E6C245EAD2B8EB93
:1004B400020E69EB03050138E4E72846D7E7404616
:1004C40091E78146BEE7014678E702383C4445E7B8
:1004D400084608E7A8F102083D442BE7704700BF2F
:1004E40038B50E4A0E4B054618784FF47A73B3FBB1
:1004F400F0F31068B0FBF3F000F0B6F8044658B916
:100504000F2D09D8024629464FF0FF3000F05EF85F
:10051400044B20461D6038BD012038BD0C0000206E
:10052400000000200400002008B50B4B1A6842F4B8
:1005340000721A601A6842F480621A601A6842F4FF
:1005440080721A60032000F02FF80020FFF7C8FF24
:1005540001F074FD002008BD003C0240034A044B36
:1005640011681B780B441360704700BF38000020EB
:1005740000000020014B1868704700BF38000020BD
:1005840038B50446FFF7F6FF631C1CBF054B1B7808
:10059400054618BFE418FFF7EDFF401B8442FAD864
:1005A40038BD00BF00000020074AD36823F4E0638D
:1005B4001B041B0C43F0BF63000243F4003300F43C
:1005C400E0600343D360704700ED00E0174B30B5A3
:1005D400DC68C4F30224C4F10703251D042B28BFDF
:1005E4000423062D4FF0010505FA03F303F1FF334D
:1005F4008CBF033C00241940A14005FA04F4013CDB
:100604002240002842EA01024FEA0212AFBF00F181
:10061400604000F00F00064BD2B2A5BF00F5614068
:10062400D2B21A5480F8002330BD00BF00ED00E0C0
:1006340014ED00E04209012300F01F0003FA00F06A
:10064400014B43F82200704700E100E04309012216
:1006540000F01F0002FA00F02033024A42F823009F
:10066400704700BF00E100E00138B0F1807F0AD29A
:10067400064B074A5860F02182F823100020072215
:1006840098601A6070470120704700BF10E000E0D6
:1006940000ED00E0044B1A6804280CBF42F0040289
:1006A40022F004021A60704710E000E0704708B5B9
:1006B400FFF7FCFF08BD00002DE9F04F85B00B6883
:1006C400DFF89C81644A01934FF001090023019CE7
:1006D40009FA03F707EA0406B74240F0AD804C6814
:1006E40024F0100ABAF1020F16D14FEAD30C00EB32
:1006F4008C0C03F0070BDCF820504FEA8B0B4FF007
:100704000F0E0EFA0BFE25EA0E0E0D6905FA0BF517
:1007140045EA0E05CCF820504FEA430C0325D0F8E7
:1007240000B005FA0CF5ED4304F0030E0BEA050BDB
:100734000EFA0CFE0AF1FF3A4EEA0B0EBAF1010F63
:100744000095C0F800E015D8D0F808E005EA0E0ED0
:10075400CD6805FA0CFA4AEA0E0EC0F808E0D0F8A3
:1007640004E02EEA0707C4F3001E0EFA03FE4EEA65
:1007740007074760C768009D3D408F6807FA0CF77C
:100784003D43C560E50057D54FF0000BCDF80CB0E4
:10079400D8F84470314D47F48047C8F84470D8F80D
:1007A400447007F480470397039F23F0030707F17E
:1007B400804707F59C3703F0030CD7F808A04FEAED
:1007C4008C0C4FF00F0E0EFA0CFEA8422AEA0E0E05
:1007D40039D005F58065A84237D005F58065A84273
:1007E40035D005F58065A84233D005F58065A8426B
:1007F40014BF0725042505FA0CF545EA0E05BD606E
:100804001568F74314F4803F0CBF3D403543156031
:10081400556814F4003F0CBF3D403543556095685E
:1008240014F4801F0CBF3D4035439560D568A40285
:1008340054BF3D403543D5600133102B7FF447AF9F
:1008440005B0BDE8F08F5D46D5E70125D3E7022565
:10085400D1E70325CFE700BF003C01400000024080
:10086400003802400369194214BF01200020704778
:100874000AB1816170470904FBE74369594041614A
:100884007047704708B5044B5969014202D058615A
:10089400FFF7F7FF08BD00BF003C014070B50446F8
:1008A400002862D090F83D3003F0FF021BB980F8B5
:1008B4003C2001F00BFC22682D4E2E4D242384F89D
:1008C4003D30136823F00103136000F0A5FA636858
:1008D4002268B0FBF5F5B34284BF4FF496716943C7
:1008E400556091BF691C4FF47A75B1FBF5F1013184
:1008F400B342116221D85B00B0FBF3F0C0F30B03E9
:10090400032B98BF0420216AE369D0610B43136071
:10091400E16823690B439360A16963690B43D36066
:10092400136843F00103136000202023206484F83B
:100934003D30206384F83E0070BDA16849B903EBE3
:100944004303B0FBF3F0C0F30B0363B140F4004086
:10095400D9E719214B43B0FBF3F0C0F30B0313B1F8
:1009640040F44040CFE70120CDE7012070BD00BF37
:10097400A086010040420F002DE9F341044618B956
:10098400012002B0BDE8F0810368DD0710D42368BC
:10099400980758D423681A0700F19A8023685B07E4
:1009A40000F1B880A269002A40F019810020E8E72C
:1009B400A64B9A6802F00C02042A07D09A6802F047
:1009C4000C02082A0AD15B68590207D59F4B1B68A1
:1009D4009A03DCD56368002BD9D1D1E763689B4DBA
:1009E400B3F5803F11D12B6843F480332B60FFF7BC
:1009F400C1FD964D06462B689B03C8D4FFF7BAFD8C
:100A0400801B6428F7D90320BBE7B3F5A02F04D1DA
:100A14002B6843F480232B60E5E72A6822F48032B4
:100A24002A602A6822F480222A60002BDFD1FFF793
:100A3400A1FD06462B689F03A9D5FFF79BFD801BEC
:100A44006428F7D9DFE7814B9A6812F00C0F07D0BE
:100A54009A6802F00C02082A11D15B685E020ED477
:100A64007A4B1A68950702D5E268012A88D11A6878
:100A7400216922F0F80242EAC1021A608AE7E268B8
:100A8400734BB2B101221A60FFF774FD6F4D064635
:100A94002B68980707D52B68226923F0F80343EAEB
:100AA400C2032B6076E7FFF765FD801B0228EFD9B0
:100AB400A9E71A60FFF75EFD644D06462B689907A7
:100AC4007FF568AFFFF756FD801B0228F6D99AE739
:100AD4006269604B7AB101221A60FFF74BFD5B4DEE
:100AE40006466B6F9F073FF559AFFFF743FD801B29
:100AF4000228F6D987E71A60FFF73CFD534D0646F6
:100B04006B6F98077FF54AAFFFF734FD801B02280F
:100B1400F6D978E74D4B1A6C12F0805228D1019225
:100B24001A6C42F080521A641B6C03F080530193D8
:100B3400019B0126484D2B68D9051BD5A368434D5D
:100B4400012B27D12B6F43F001032B67FFF712FD15
:100B54003E4D074641F288382B6F9B0739D5002E4E
:100B64003FF420AF394A136C23F08053136419E720
:100B74000026DFE72B6843F480732B60FFF7FAFC51
:100B840007462B68DA05D9D4FFF7F4FCC01B02280A
:100B9400F7D938E7052B04D12B6F43F004032B67F7
:100BA400D0E72A6F22F001022A672A6F22F004029A
:100BB4002A67002BCAD1FFF7DDFC41F288380746CB
:100BC4002B6F9807CBD5FFF7D5FCC01B4045F7D951
:100BD40019E7FFF7CFFCC01B4045BDD913E71B4DF8
:100BE400AB6803F00C03082B3FF4CAAE1B4E002382
:100BF400022A336034D1FFF7BDFC07462B68990104
:100C04001ED4226AE3691343626A43EA8213E26AE6
:100C140043EA0263A26A0D4C5208013A43EA0243D2
:100C24006B6001233360FFF7A5FC054623689A0136
:100C34003FF5BCAEFFF79EFC401B0228F6D9E2E666
:100C4400FFF798FCC01B0228D8D9DCE60038024024
:100C540000004742800E4742007000406000474257
:100C6400FFF788FC04462B689B017FF59FAEFFF7D6
:100C740081FC001B0228F6D9C5E600BF134908B55C
:100C84008B6803F00C03042B03D0082B03D010480B
:100C940008BD104808BD4A684B68496813F48003CE
:100CA40014BF0C480A48C1F3881118BF002302F08E
:100CB4003F02A1FB0001FFF78BFA044B5B68C3F30F
:100CC400014301335B00B0FBF3F008BD0038024080
:100CD4000024F40000127A002DE9F0410D46044688
:100CE40010B90120BDE8F081444B1A6802F00F02EC
:100CF4008A4228D321688F072DD4C80740D43F4B9C
:100D04001A6802F00F02954266D3226851076CD428
:100D1400130707D53A4A2169936823F4604343EAE9
:100D2400C1039360FFF7AAFF354B364A9B68C3F3B0
:100D34000313D35CD840344B18600020FFF7D0FB7A
:100D44000020BDE8F081CAB21A701B6803F00F03DB
:100D54009942C6D1CEE72A4B11F0040F1EBF9A6800
:100D640042F4E0529A600E0742BF9A6842F460422D
:100D74009A609A68A06822F0F00202439A60BCE785
:100D840062681F4B012A1DD11B6813F4003FA8D0D1
:100D94001B4EB36823F003031343B360FFF7EAFB6E
:100DA40041F288380746B368626803F00C03B3EB7A
:100DB400820FA4D0FFF7DEFBC01B4045F3D903200C
:100DC400BDE8F081911E01291B6802D813F0007F51
:100DD400DDE713F0020FDAE7EAB21A701B6803F0DA
:100DE4000F039D427FF47DAF8FE70549E0688B6870
:100DF40023F4E05303438B608AE700BF003C0240C6
:100E0400003802402C2600080C000020014B186812
:100E1400704700BF0C000020044B054A9B68C3F3D5
:100E24008223D35C034A1068D840704700380240DC
:100E34003C2600080C000020044B054A9B68C3F3C1
:100E44004233D35C034A1068D840704700380240EC
:100E54003C2600080C000020036A23F0010303620F
:100E6400036A70B5446882690D6822F073022A43EC
:100E74008D6823F002032B430A4DA8420BD1CD68A1
:100E84008E6923F008032B434D6924F440743543E1
:100E940023F004032C43446082614A684263036282
:100EA40070BD00BF00000140036A23F48073036235
:100EB400036A70B54468C2690D6822F073022A435C
:100EC4008D6823F4007343EA05230B4DA8420DD12A
:100ED400CD688E6923F4006343EA05234D6924F445
:100EE4004054354323F4806344EA05144460C261EA
:100EF4004A68C263036270BD00000140036A23F4C0
:100F040080530362036A30B54468C2690D6822F4F1
:100F1400E64242EA05228D6823F4005343EA05338E
:100F2400064DA84202BF4D6924F4804444EA851466
:100F34004460C2614A680264036230BD000001403B
:100F44000268022380F83930136843F00103136008
:100F5400012380F8393000207047022380F83930AB
:100F64000368196A41F21112114208D1196A40F258
:100F74004442114202BF1A6822F001021A6001239E
:100F840080F8393000207047704790F83830012BD2
:100F940070B54FF002031CD080F839300368012289
:100FA40080F838209A6822F47F4222F077029A600F
:100FB4000A68402A79D019D8102A00F093800AD8F8
:100FC400002A00F08980012380F83930002380F85A
:100FD4003830184670BD202A00F08A80302AF2D1B9
:100FE4009A6822F0700242F0370236E0702A36D056
:100FF4001BD8502A42D0602AE5D11C6A4D68CE68BD
:1010040024F010041C6299691A6A21F4704122F0D8
:10101400A00242EA051241EA063199611A629A680D
:1010240022F0700242F0670217E0B2F5805F11D03F
:10103400B2F5005FC7D18A684D689C68C9682A43C5
:1010440024F47F4442EA012222439A609A6842F4DB
:10105400804202E09A6822F007029A60B3E78A6845
:101064004D689C68C9682A4324F47F4442EA0122FB
:1010740022439A609A6842F07702EEE74C68CE68A1
:10108400196A1D6A25F001051D629A6921F00A0199
:1010940022F0F00242EA061221439A6119629A6828
:1010A40022F0700242F05702D7E74C68CE68196A02
:1010B4001D6A25F001051D629A6921F00A0122F0DA
:1010C400F00242EA061221439A6119629A6822F0F8
:1010D400700242F04702C0E79A6822F0700242F0C0
:1010E4000702BAE79A6822F0700242F01702B4E7E6
:1010F4009A6822F0700242F02702AEE77047704708
:1011040070477047704703681A69910710B5044621
:101114000ED5DA6892070BD56FF002021A619B694B
:1011240001229B07027677D0FFF7EAFF002323769C
:1011340023681A69500710D5DA6851070DD56FF086
:1011440004021A619B69022213F4407F227620462E
:1011540068D0FFF7D5FF0023237623681A691207A6
:101164000FD5DA6810070CD56FF008021A61DB6935
:1011740004229907227620465AD0FFF7C1FF0023A4
:10118400237623681A69D20610D5DA68D0060DD5FD
:101194006FF010021A61DB69082213F4407F227693
:1011A40020464BD0FFF7ACFF0023237623681A694F
:1011B400D10708D5DA68D20705D56FF001021A61A4
:1011C4002046FFF79BFF23681A69100608D5DA68E2
:1011D400110605D56FF080021A61204600F089F9E6
:1011E40023681A69520608D5DA68500605D56FF0E7
:1011F40040021A612046FFF785FF23681A699106A9
:1012040022D5DA6892061FD56FF0200220461A61B3
:10121400BDE8104000F06CB9FFF771FF2046FFF7FE
:1012240070FF83E7FFF76BFF2046FFF76AFF92E743
:10123400FFF765FF2046FFF764FFA0E7FFF75FFFB6
:101244002046FFF75EFFAFE710BD0000224A0368A7
:1012540090420ED0B0F1804F0BD0A2F57C42904268
:1012640007D002F58062904203D002F5806290427A
:1012740019D14A6823F070031343174A904204D1EA
:10128400CA6823F44073134318E0B0F1804FF7D0D9
:10129400124A9042F4D002F580629042F0D002F5F6
:1012A40080629042ECD00E4A9042E9D002F580620E
:1012B4009042E5D002F580629042E1D003608B68F1
:1012C400C3620B688362044B984204BF0B690363D7
:1012D40001234361704700BF000001400004004047
:1012E4000040014010B50446A0B190F8393003F035
:1012F400FF021BB980F8382000F012FF022384F8A3
:1013040039302068211DFFF7A1FF012384F839300B
:10131400002010BD012010BD10B50446A0B190F806
:10132400393003F0FF021BB980F83820FFF72CFE98
:10133400022384F839302068211DFFF787FF012339
:1013440084F83930002010BD012010BD036A23F059
:1013540010030362036A70B5446882690D6822F45D
:10136400E64242EA05228D6823F0200343EA05138E
:101374000B4DA8420DD1CD688E6923F0800343EA5A
:1013840005134D6924F44064354323F0400344EAD3
:101394008504446082614A688263036270BD00BF51
:1013A4000000014038B590F83830012B04464FF066
:1013B400020025D0012384F8383084F839000C2A3F
:1013C40018D8DFE802F0071717171E1717172F177B
:1013D400171740002068FFF73FFD236809699A69E1
:1013E40042F008029A619A6922F004029A619A69A9
:1013F4000A439A610123002084F8393084F83800C4
:1014040038BD2068FFF7A2FF236809699A6942F48E
:1014140000629A619A6922F480629A619A6942EA46
:101424000122E6E72068FFF73FFD23680969DA69CE
:1014340042F00802DA61DA6922F00402DA61DA6958
:101444000A43DA61D6E72068FFF758FD2368096983
:10145400DA6942F40062DA61DA6922F48062DA61FC
:10146400DA6942EA0122ECE7036A10B501248C40F0
:1014740023EA04030362036A8A401A43026210BD2A
:1014840010B5044601220068FFF7EEFF2368064A00
:10149400934202BF5A6C42F400425A641A6842F002
:1014A40001021A60002010BD0000014090F838309D
:1014B400012B10B54FF0020318D080F839300368BF
:1014C4000C685A68496822F070025A605A682243CC
:1014D4005A609A6822F080029A609A680A439A6075
:1014E400012380F83930002380F83830184610BDC5
:1014F400704770472DE9F0470668C2683369C169CF
:1015040023F4405313433361044683680069F2684B
:101514000343606922F41642034322F00C020B4396
:101524001343F3607369A26923F440731343B1F561
:10153400004F73617A4B7CD19E4203D003F58063E4
:101544009E4244D1FFF778FC192505FB00F360683F
:101554004FF064094000B3FBF0F3B3FBF9F34FEA37
:101564000318FFF769FC636868435B00B0FBF3F79B
:10157400FFF762FC636868435B00B0FBF3F3B3FB03
:10158400F9F309FB1373DB003233B3FBF9F35B00AC
:1015940003F4F877FFF750FC626868435200B0FB2D
:1015A400F2FAFFF749FC636868435B00B0FBF3F3AE
:1015B400B3FBF9F309FB13A3DB003233B3FBF9F3F9
:1015C40003F0070343443B44B360BDE8F087FFF7EF
:1015D40023FC192505FB00F360684FF06409400003
:1015E400B3FBF0F3B3FBF9F34FEA0318FFF714FC72
:1015F400636868435B00B0FBF3F7FFF70DFC6368B7
:1016040068435B00B0FBF3F3B3FBF9F309FB13731B
:10161400DB003233B3FBF9F35B0003F4F877FFF735
:10162400FBFB626868435200B0FBF2FAFFF7F4FB7D
:10163400B9E79E4202D03B4B9E4240D1FFF7FCFBF0
:10164400676819254FF0640905FB00F3BF00B3FB7D
:10165400F7F3B3FBF9F31F01FFF7EEFB636868438D
:101664009B00B0FBF3F8FFF7E7FB636868439B005C
:10167400B0FBF3F3B3FBF9F309FB13831B01323320
:10168400B3FBF9F303F0F008FFF7D6FB6268684395
:101694009200B0FBF2FAFFF7CFFB636868439B004C
:1016A400B0FBF3F3B3FBF9F309FB13A31B013233D0
:1016B400B3FBF9F303F00F0343EA080383E7FFF7EF
:1016C400ABFB676819254FF0640905FB00F3BF0005
:1016D400B3FBF7F3B3FBF9F31F01FFF79DFB63685B
:1016E40068439B00B0FBF3F8FFF796FB636868431D
:1016F4009B00B0FBF3F3B3FBF9F309FB13831B016A
:101704003233B3FBF9F303F0F008FFF785FB6268AB
:1017140068439200B0FBF2FAFFF77EFBBDE700BF1F
:10172400001001400014014010B5044640B390F885
:10173400393003F0FF021BB980F8382000F066FD51
:101744002268242384F83930D36823F40053D36007
:101754002046FFF7CFFE23681A6922F490421A61EB
:101764005A6922F02A025A61DA6842F40052DA60B5
:1017740000202023E06384F8393084F83A3010BD27
:10178400012010BD00B589B000226023029001A998
:101794000748019303920592FFF704FE014600B146
:1017A400FEE70348FFF76CFE09B05DF804FB00BFD9
:1017B4001801002000B589B060230422019302902F
:1017C40000230DEB0201074803930593FFF7EAFD9D
:1017D40000B1FEE704210348FFF752FE09B05DF8AB
:1017E40004FB00BF1801002010B501220D4C0E4867
:1017F4001146FFF73DF8236800225A622046FFF79E
:101804009FFB2368596A0129FCD100220648FFF78F
:101814002FF80448FFF7A1FB0720BDE81040FEF7AE
:1018240009BF00BFB40100200000024010B50F4CF6
:101834000F4801224FF48071FFF71AF82368002241
:101844005A622046FFF77CFB2268536A012BFCD1C5
:1018540000224FF480710648FFF70AF80348FFF7A7
:101864007CFB0A20BDE81040FEF7E4BE40000020E7
:101874000000024010B50E4C0E4801220221FEF772
:10188400F7FF236800225A622046FFF759FB2268BB
:10189400536A012BFCD1002202210648FEF7E8FF1F
:1018A4000348FFF75AFB0620BDE81040FEF7C2BE0E
:1018B400D80000200008024030B595B00022274B24
:1018C4000192196C41F0805119641B6C244903F096
:1018D40080530193019B02920B6823F4404343F429
:1018E40000430B600B680F9203F440430293029B86
:1018F40001230B9310230C9310934FF4A873022429
:1019040011930425072308A808940E9412951393A1
:10191400FFF732F800B1FEE70F23039305904FF46D
:1019240080530790214603A804940693FFF7D4F943
:10193400044600B1FEE7FFF769FA4FF47A73B0FB8F
:10194400F3F0FEF791FE2846FEF7A4FE2246214658
:101954004FF0FF30FEF73AFE15B030BD00380240BC
:101964000070004080B592B00024FEF7DDFDFFF763
:10197400A3FF9E4B01941A6B9D489E4EDFF8AC92D8
:1019840042F004021A631A6B02F004020192019AF3
:1019940002941A6B42F080021A631A6B02F08002FE
:1019A4000292029A03941A6B42F001021A631A6BB0
:1019B40002F001020392039A04941A6B42F00202A9
:1019C4001A631B6B03F00203049322460221049B57
:1019D400FEF74EFF224640F221118748FEF748FFEA
:1019E400012280218248FEF743FF22466821834872
:1019F400FEF73EFF4FF400530B930BA9804B7C483A
:101A04000C9301250D94FEF757FE0BA978480B950E
:101A14000C960D94FEF750FE82230BA974480B9389
:101A24000C954FF028080D940E94FEF745FE0BA973
:101A34006F48CDF82C80CDF830900D94FEF73CFE25
:101A440040F221130BA96C480B930C9502270D94BB
:101A54000E94FEF731FE0BA967480B970C960D9474
:101A6400FEF72AFE14230BA964480B930C960D94DD
:101A7400FEF722FE4FF460630BA95F480B93CDF889
:101A840030900D94FEF718FE0BA95C480C95CDF828
:101A94002C800D940E94FEF70FFE402357480B93B1
:101AA4000BA90C950D940E97FEF706FE5548564B60
:101AB40084604FF4E13580E828000C23C46004619D
:101AC40043618461C461FFF72FFE00B1FEE74F4B11
:101AD4004F4A504C986083E81400D8604FF4804219
:101AE40058619861D861186218461A61FEF7D6FEEB
:101AF40000B1FEE7484C4949A060072384E80A0086
:101B040020614FF47A632046E360FFF7EBFB00B1FA
:101B1400FEE712AD4FF4805745F82C7D2046294648
:101B2400FFF733FA00B1FEE72046FFF7F5FB00B1FB
:101B3400FEE70590069005A92046FFF7B7FC02468C
:101B440000B1FEE760230B930D904FF4FA630F90FE
:101B54000BA920460C93FFF725FC00B1FEE70422F5
:101B64000BA92046FFF71EFC064600B1FEE72046FF
:101B740000F034FB2A4C2B4AA66042F2D00384E8DE
:101B84000C00204642F21073E36026616661FFF7A1
:101B9400A9FB00B1FEE70BA920460B97FFF7F5F967
:101BA40000B1FEE7002329461D4807930893FFF779
:101BB4007DFC00B1FEE71C4C4FF080434FF452779C
:101BC400A0604FF0FF382061204684E88800C4F804
:101BD4000C80FFF787FB00B1FEE74FF480560BA99A
:101BE40020460B96FFF7D1F910B3FEE70038024008
:101BF40000080240000031100000024000040240CE
:101C040000002110F4010020004400408000002066
:101C140000540040A0860100180100200004004088
:101C24006401002000000140B401002000001110F4
:101C34000790089029462046FFF738FC00B1FEE7DC
:101C4400694C6A4BA06084E8880020614FF6FF73FA
:101C54002046E360FFF746FB00B1FEE70BA92046F0
:101C64000B96FFF792F900B1FEE70790089029461A
:101C74002046FFF71BFC00B1FEE75D4C5D4BA06006
:101C84002061204684E88800C4F80C80FFF72AFB12
:101C940000B1FEE70BA920460B96FFF776F900B1D9
:101CA400FEE70790089029462046FFF7FFFB00B1A6
:101CB400FEE7002211461920FEF788FC1920FEF7E2
:101CC400B9FC002211460720FEF780FC0720FEF72E
:101CD400B1FC002211460920FEF778FC0920FEF72A
:101CE400A9FC002211460820FEF770FC0820FEF72C
:101CF400A1FC002211460A20FEF768FC0A20FEF728
:101D040099FC002211460620FEF760FC0620FEF72F
:101D140091FC002211461720FEF758FC1720FEF70D
:101D240089FC002211462820FEF750FC2820FEF7EB
:101D340081FC0620FEF78AFC0720FEF787FC0A20B8
:101D4400FEF784FC0820FEF781FC0920FEF77EFCE8
:101D54001720FEF77BFC2820FEF778FC0920FEF70D
:101D640069FC1720FEF766FC2820FEF763FC0021BF
:101D74002148224CFFF784FB04211F48FFF780FB16
:101D840040F6B830FFF7FEFC40F6B830FFF712FD1E
:101D9400002280211A48FEF76BFD002240211948D9
:101DA400FEF766FD184B00221A70184A184B136090
:101DB400184A1360184A1360FFF738FD0A20FEF72B
:101DC400DFFBFFF711FD0A20FEF7DAFBFFF752FDF8
:101DD4000A20FEF7D5FB237813B100F095F8EBE762
:101DE40000F004F9E8E700BF4000002000080040CC
:101DF400D8000020000C0040180100200900002039
:101E04000008024000040240350000206001002068
:101E140000002041A00100201401002008B540F674
:101E2400B830FFF7AFFC40F6B830BDE80840FFF724
:101E3400C1BC000008B5FFF7F1FF0022802109486A
:101E4400FEF716FD012240210748FEF711FD4FF46D
:101E5400FA60FFF797FC4FF4FA60BDE80840FFF71B
:101E6400A9BC00BF000802400004024008B5FFF707
:101E7400D5FF012280210948FEF7FAFC0022402107
:101E84000748FEF7F5FC4FF4FA60FFF77BFC4FF4CC
:101E9400FA60BDE80840FFF78DBC00BF00080240AF
:101EA4000004024008B5FFF7B9FF0022802105486D
:101EB400FEF7DEFC002240210348BDE80840FEF79F
:101EC400D7BC00BF000802400004024008B500204F
:101ED400FFF758FC0020BDE80840FFF76BBC00008A
:101EE40010B5084C012220212046FEF7C1FCC82071
:101EF400FEF746FB204600222021BDE81040FEF7F5
:101F0400B7BC00BF00040240324A334992ED007A64
:101F1400F0EE007AB4EEE77AF1EE10FA10B591ED36
:101F2400007A19D82D4B2E4CD3ED007AB4EEE77A13
:101F3400F1EE10FA05DD23781BB1FFF77BFF294A88
:101F440004E02378BBB1FFF791FF274A13680133FC
:101F540013600023237010BDF7EE087AB4EEE77A1D
:101F6400F1EE10FA08D81E4C23782BB1FFF762FF6C
:101F74002378002BE3D110BD184B93ED007AB4EE17
:101F8400E77AF1EE10FA08D8154C207828B1FFF75B
:101F94006DFF2378002BEED0D7E7D2ED006AB1EEC7
:101FA400007AF4EEC76AF1EE10FAE4DD91ED007AFE
:101FB400B4EEE77AF1EE10FADDDD93ED007AB4EEDB
:101FC400E77AF1EE10FAD6DDFFF76CFF044B01223D
:101FD4001A70D0E71401002060010020A001002045
:101FE4000A0000202C0000203000002008B50F4A11
:101FF4001378D3B10E4900230B700E490B70137084
:102004000D4B01221A70FFF74DFFFFF75FFFFFF73B
:1020140067FFFFF703FFFFF745FF0920FEF70AFB01
:102024001720BDE80840FEF705BB08BD34000020BA
:1020340035000020080000200900002013B5224BC1
:10204400002400945A6C42F480425A645A6C02F49C
:1020540080420092009A01941A6C42F080521A64F1
:102064001B6C03F0805301930320019BFEF79CFA41
:10207400224621466FF00B00FEF7A8FA22462146BD
:102084006FF00A00FEF7A2FA224621466FF009001B
:10209400FEF79CFA224621466FF00400FEF796FAFA
:1020A400224621466FF00300FEF790FA22462146AD
:1020B4006FF00100FEF78AFA224621464FF0FF3006
:1020C400FEF784FA02B010BD003802407FB5026802
:1020D400104B9A421BD14FF4407301931223029385
:1020E400012303930323049304230DEB03010A4800
:1020F4000593FEF7E1FA00230093084B1A6C42F4AF
:1021040000121A641B6C03F400130093009B07B0C5
:102114005DF804FB00540040000402400038024013
:102124000368294A934286B00DD100230193274BBB
:102134005A6C42F001025A645B6C03F00103019390
:10214400019B06B07047B3F1804F0CD1002302937A
:102154001E4B1A6C42F001021A641B6C03F001035B
:102164000293029BEDE71A4A93420CD10023039396
:10217400164B1A6C42F002021A641B6C03F0020341
:102184000393039BDDE7134A93420CD1002304938A
:102194000E4B1A6C42F004021A641B6C03F0040325
:1021A4000493049BCDE70C4A9342CAD100230593C0
:1021B400064B1A6C42F008021A641B6C03F0080305
:1021C4000593059BBDE700BF0000014000380240B5
:1021D4000004004000080040000C00407FB5026885
:1021E400084B9A420BD1C0230022019301A9022378
:1021F40005480293039204920593FEF75DFA07B033
:102204005DF804FB00040040000002407FB5026852
:102214000E4B9A4217D100230D4A0093116C0D48BE
:1022240041F400311164126C039302F40032009201
:10223400009A04930C2201920723022201A902921C
:102244000593FEF739FA07B05DF804FB004400403B
:1022540000380240000002407047FEE7FEE7FEE758
:10226400FEE770477047704708B5FEF777F9BDE899
:102274000840FEF71CBA000008B50120FEF702FB77
:1022840001211948FEF7EEFA012805D11748036821
:1022940000225A62FEF754FE01211348FEF7E2FAC7
:1022A4000246F8B9114BDFED126A1B681148D3EDF1
:1022B400097A114BF8EE677A202187EEA67AF7EEB9
:1022C400087A83ED007A93ED007AB4EEE77AF1EEC2
:1022D40010FA48BF0122FEF7CBFA0620BDE80840F9
:1022E400FEF7B4B908BD00BF00080240D8000020C2
:1022F40000006842000002406001002008B502208E
:10230400FEF7C0FA02211948FEF7ACFA012805D1FC
:102314001748036800225A62FEF712FE022113488E
:10232400FEF7A0FA0246F8B9114BDFED126A1B68FA
:102334000E48D3ED097A104BF8EE677A202187EE28
:10234400A67AF7EE087A83ED007A93ED007AB4EE7C
:10235400E77AF1EE10FA48BF0122FEF789FA072066
:10236400BDE80840FEF772B908BD00BF0000024096
:10237400B401002000006842A001002008B5042038
:10238400FEF780FA20210248BDE80840FEF775BA3E
:102394000000024008B50820FEF774FA064A01233B
:1023A4001370064A1370064B00221A700920BDE808
:1023B4000840FEF74BB900BF340000203500002070
:1023C4000900002008B51020FEF75CFA1021194816
:1023D400FEF748FA012805D11748036800225A621B
:1023E400FEF7AEFD10211348FEF73CFA0246F8B999
:1023F400114BDFED126A1B681148D3ED097A114BBA
:10240400F8EE677A202187EEA67AF7EE087A83ED54
:10241400007A93ED007AB4EEE77AF1EE10FA48BF51
:102424000122FEF725FA0A20BDE80840FEF70EB99E
:1024340008BD00BF000402404000002000006842C4
:10244400000002401401002070B52020FEF71AFAA3
:102454004FF40070FEF716FA20210F480F4D104C70
:10246400FEF700FA0128064610D1FFF7FFFC2E7094
:10247400002309202370FEF7DDF820210948FEF728
:10248400FCF901232B700023237070BDFFF7D2FCED
:1024940001232B70ECE700BF000802403500002048
:1024A400090000200000024008B50748FEF72BFE93
:1024B4002820FEF7BFF81720FEF7BCF80820BDE877
:1024C4000840FEF7B7B800BF6401002008B54FF418
:1024D4008060FEF7D7F94FF40060FEF7D3F94FF4AC
:1024E4000050FEF7CFF94FF480610D48FEF7BAF9BA
:1024F40001280CD120210A48FEF7BFF9094B0848EE
:1025040001221A702021BDE80840FEF7B6B94FF445
:1025140000610348FEF7A6F90128EFD1EAE700BFFE
:1025240000000240350000200F49D1F8883043F400
:102534007003C1F888300D4B1A68002042F0010284
:102544001A6098601A6822F0847222F480321A6049
:10255400074A5A601A6822F480221A60D8604FF041
:1025640000638B60704700BF00ED00E0003802405C
:1025740010300024DFF834D0002103E00C4B5B580A
:10258400435004310B480C4B42189A42F6D30B4A81
:1025940002E0002342F8043B094B9A42F9D3FFF7C7
:1025A400C3FF00F011F8FFF7DDF970470080012048
:1025B4005426000800000020100000201000002015
:1025C4003C020020FEE7000070B50D4E0D4CA41B2C
:1025D400A4100025A54209D10B4E0C4C00F018F8AC
:1025E400A41BA4100025A54205D170BD56F82530C2
:1025F40098470135EEE756F8253098470135F2E75C
:102604004C2600084C2600084C26000850260008DA
:10261400F8B500BFF8BC08BC9E467047F8B500BFCB
:08262400F8BC08BC9E4670479B
:10262C000000000000000000010203040607080976
:08263C0000000000010203048C
:08264400C0DBFF7F0100000074
:04264C00B9010008C8
:0426500095010008E8
:102654000100000010000000010101000024F4004A
:040000050800257951
:00000001FF
